{
  "_format": "hh-sol-artifact-1",
  "contractName": "MyEpicNFT",
  "sourceName": "contracts/MyEpicNFT.sol",
  "abi": [
    {
      "inputs": [],
      "stateMutability": "nonpayable",
      "type": "constructor"
    },
    {
      "anonymous": false,
      "inputs": [
        {
          "indexed": true,
          "internalType": "address",
          "name": "owner",
          "type": "address"
        },
        {
          "indexed": true,
          "internalType": "address",
          "name": "approved",
          "type": "address"
        },
        {
          "indexed": true,
          "internalType": "uint256",
          "name": "tokenId",
          "type": "uint256"
        }
      ],
      "name": "Approval",
      "type": "event"
    },
    {
      "anonymous": false,
      "inputs": [
        {
          "indexed": true,
          "internalType": "address",
          "name": "owner",
          "type": "address"
        },
        {
          "indexed": true,
          "internalType": "address",
          "name": "operator",
          "type": "address"
        },
        {
          "indexed": false,
          "internalType": "bool",
          "name": "approved",
          "type": "bool"
        }
      ],
      "name": "ApprovalForAll",
      "type": "event"
    },
    {
      "anonymous": false,
      "inputs": [
        {
          "indexed": false,
          "internalType": "address",
          "name": "sender",
          "type": "address"
        },
        {
          "indexed": false,
          "internalType": "uint256",
          "name": "tokenId",
          "type": "uint256"
        },
        {
          "indexed": false,
          "internalType": "string",
          "name": "tokenUri",
          "type": "string"
        }
      ],
      "name": "NewEpicNFTMinted",
      "type": "event"
    },
    {
      "anonymous": false,
      "inputs": [
        {
          "indexed": true,
          "internalType": "address",
          "name": "from",
          "type": "address"
        },
        {
          "indexed": true,
          "internalType": "address",
          "name": "to",
          "type": "address"
        },
        {
          "indexed": true,
          "internalType": "uint256",
          "name": "tokenId",
          "type": "uint256"
        }
      ],
      "name": "Transfer",
      "type": "event"
    },
    {
      "inputs": [
        {
          "internalType": "address",
          "name": "to",
          "type": "address"
        },
        {
          "internalType": "uint256",
          "name": "tokenId",
          "type": "uint256"
        }
      ],
      "name": "approve",
      "outputs": [],
      "stateMutability": "nonpayable",
      "type": "function"
    },
    {
      "inputs": [
        {
          "internalType": "address",
          "name": "owner",
          "type": "address"
        }
      ],
      "name": "balanceOf",
      "outputs": [
        {
          "internalType": "uint256",
          "name": "",
          "type": "uint256"
        }
      ],
      "stateMutability": "view",
      "type": "function"
    },
    {
      "inputs": [],
      "name": "getAllNfts",
      "outputs": [
        {
          "components": [
            {
              "internalType": "address",
              "name": "sender",
              "type": "address"
            },
            {
              "internalType": "uint256",
              "name": "tokenId",
              "type": "uint256"
            },
            {
              "internalType": "string",
              "name": "tokenUri",
              "type": "string"
            }
          ],
          "internalType": "struct MyEpicNFT.EpicNft[]",
          "name": "",
          "type": "tuple[]"
        }
      ],
      "stateMutability": "view",
      "type": "function"
    },
    {
      "inputs": [
        {
          "internalType": "uint256",
          "name": "tokenId",
          "type": "uint256"
        }
      ],
      "name": "getApproved",
      "outputs": [
        {
          "internalType": "address",
          "name": "",
          "type": "address"
        }
      ],
      "stateMutability": "view",
      "type": "function"
    },
    {
      "inputs": [
        {
          "internalType": "address",
          "name": "owner",
          "type": "address"
        },
        {
          "internalType": "address",
          "name": "operator",
          "type": "address"
        }
      ],
      "name": "isApprovedForAll",
      "outputs": [
        {
          "internalType": "bool",
          "name": "",
          "type": "bool"
        }
      ],
      "stateMutability": "view",
      "type": "function"
    },
    {
      "inputs": [],
      "name": "makeAnEpicNFT",
      "outputs": [],
      "stateMutability": "nonpayable",
      "type": "function"
    },
    {
      "inputs": [
        {
          "internalType": "uint256",
          "name": "tokenId",
          "type": "uint256"
        },
        {
          "internalType": "string",
          "name": "position",
          "type": "string"
        },
        {
          "internalType": "string[]",
          "name": "emojiArray",
          "type": "string[]"
        }
      ],
      "name": "makeSvgSquare",
      "outputs": [
        {
          "internalType": "string",
          "name": "",
          "type": "string"
        }
      ],
      "stateMutability": "view",
      "type": "function"
    },
    {
      "inputs": [],
      "name": "name",
      "outputs": [
        {
          "internalType": "string",
          "name": "",
          "type": "string"
        }
      ],
      "stateMutability": "view",
      "type": "function"
    },
    {
      "inputs": [
        {
          "internalType": "uint256",
          "name": "tokenId",
          "type": "uint256"
        }
      ],
      "name": "ownerOf",
      "outputs": [
        {
          "internalType": "address",
          "name": "",
          "type": "address"
        }
      ],
      "stateMutability": "view",
      "type": "function"
    },
    {
      "inputs": [
        {
          "internalType": "string",
          "name": "",
          "type": "string"
        }
      ],
      "name": "rectangles",
      "outputs": [
        {
          "internalType": "string",
          "name": "",
          "type": "string"
        }
      ],
      "stateMutability": "view",
      "type": "function"
    },
    {
      "inputs": [
        {
          "internalType": "address",
          "name": "from",
          "type": "address"
        },
        {
          "internalType": "address",
          "name": "to",
          "type": "address"
        },
        {
          "internalType": "uint256",
          "name": "tokenId",
          "type": "uint256"
        }
      ],
      "name": "safeTransferFrom",
      "outputs": [],
      "stateMutability": "nonpayable",
      "type": "function"
    },
    {
      "inputs": [
        {
          "internalType": "address",
          "name": "from",
          "type": "address"
        },
        {
          "internalType": "address",
          "name": "to",
          "type": "address"
        },
        {
          "internalType": "uint256",
          "name": "tokenId",
          "type": "uint256"
        },
        {
          "internalType": "bytes",
          "name": "_data",
          "type": "bytes"
        }
      ],
      "name": "safeTransferFrom",
      "outputs": [],
      "stateMutability": "nonpayable",
      "type": "function"
    },
    {
      "inputs": [
        {
          "internalType": "address",
          "name": "operator",
          "type": "address"
        },
        {
          "internalType": "bool",
          "name": "approved",
          "type": "bool"
        }
      ],
      "name": "setApprovalForAll",
      "outputs": [],
      "stateMutability": "nonpayable",
      "type": "function"
    },
    {
      "inputs": [
        {
          "internalType": "bytes4",
          "name": "interfaceId",
          "type": "bytes4"
        }
      ],
      "name": "supportsInterface",
      "outputs": [
        {
          "internalType": "bool",
          "name": "",
          "type": "bool"
        }
      ],
      "stateMutability": "view",
      "type": "function"
    },
    {
      "inputs": [],
      "name": "symbol",
      "outputs": [
        {
          "internalType": "string",
          "name": "",
          "type": "string"
        }
      ],
      "stateMutability": "view",
      "type": "function"
    },
    {
      "inputs": [
        {
          "internalType": "uint256",
          "name": "tokenId",
          "type": "uint256"
        }
      ],
      "name": "tokenURI",
      "outputs": [
        {
          "internalType": "string",
          "name": "",
          "type": "string"
        }
      ],
      "stateMutability": "view",
      "type": "function"
    },
    {
      "inputs": [
        {
          "internalType": "address",
          "name": "from",
          "type": "address"
        },
        {
          "internalType": "address",
          "name": "to",
          "type": "address"
        },
        {
          "internalType": "uint256",
          "name": "tokenId",
          "type": "uint256"
        }
      ],
      "name": "transferFrom",
      "outputs": [],
      "stateMutability": "nonpayable",
      "type": "function"
    }
  ],
  "bytecode": "0x60806040526040518060e0016040528060ac8152602001620061ab60ac913960089080519060200190620000359291906200122d565b506040518060c001604052806040518060400160405280600481526020017ff09f90b80000000000000000000000000000000000000000000000000000000081525081526020016040518060400160405280600481526020017ff09fa6860000000000000000000000000000000000000000000000000000000081525081526020016040518060400160405280600481526020017ff09fa69a0000000000000000000000000000000000000000000000000000000081525081526020016040518060400160405280600481526020017ff09f908a0000000000000000000000000000000000000000000000000000000081525081526020016040518060400160405280600481526020017ff09f90a20000000000000000000000000000000000000000000000000000000081525081526020016040518060400160405280600481526020017ff09faab200000000000000000000000000000000000000000000000000000000815250815250600a906006620001b3929190620012be565b506040518060c001604052806040518060400160405280600481526020017ff09f90a00000000000000000000000000000000000000000000000000000000081525081526020016040518060400160405280600481526020017ff09f90ac0000000000000000000000000000000000000000000000000000000081525081526020016040518060400160405280600781526020017ff09f95b7efb88f0000000000000000000000000000000000000000000000000081525081526020016040518060400160405280600481526020017ff09f908b0000000000000000000000000000000000000000000000000000000081525081526020016040518060400160405280600481526020017ff09f909f0000000000000000000000000000000000000000000000000000000081525081526020016040518060400160405280600481526020017ff09faab000000000000000000000000000000000000000000000000000000000815250815250600b90600662000331929190620012be565b506040518060c001604052806040518060400160405280600481526020017ff09f90ba0000000000000000000000000000000000000000000000000000000081525081526020016040518060400160405280600481526020017ff09fa6ad0000000000000000000000000000000000000000000000000000000081525081526020016040518060400160405280600481526020017ff09f90980000000000000000000000000000000000000000000000000000000081525081526020016040518060400160405280600481526020017ff09f90b00000000000000000000000000000000000000000000000000000000081525081526020016040518060400160405280600481526020017ff09f90b00000000000000000000000000000000000000000000000000000000081525081526020016040518060400160405280600481526020017ff09fa69d00000000000000000000000000000000000000000000000000000000815250815250600c906006620004af929190620012be565b506040518060c001604052806040518060400160405280600481526020017ff09fa6810000000000000000000000000000000000000000000000000000000081525081526020016040518060400160405280600481526020017ff09f90b10000000000000000000000000000000000000000000000000000000081525081526020016040518060400160405280600481526020017ff09fa68a0000000000000000000000000000000000000000000000000000000081525081526020016040518060400160405280600481526020017ff09fa6920000000000000000000000000000000000000000000000000000000081525081526020016040518060400160405280600481526020017ff09fa6a70000000000000000000000000000000000000000000000000000000081525081526020016040518060400160405280600481526020017ff09f90af00000000000000000000000000000000000000000000000000000000815250815250600d9060066200062d929190620012be565b506040518060c001604052806040518060400160405280600481526020017ff09fa6a90000000000000000000000000000000000000000000000000000000081525081526020016040518060400160405280600481526020017ff09f90b70000000000000000000000000000000000000000000000000000000081525081526020016040518060400160405280600481526020017ff09f90ad0000000000000000000000000000000000000000000000000000000081525081526020016040518060400160405280600481526020017ff09f90a10000000000000000000000000000000000000000000000000000000081525081526020016040518060400160405280600481526020017ff09f90ae0000000000000000000000000000000000000000000000000000000081525081526020016040518060400160405280600481526020017ff09fa69b00000000000000000000000000000000000000000000000000000000815250815250600e906006620007ab929190620012be565b506040518060c001604052806040518060400160405280600481526020017ff09f909e0000000000000000000000000000000000000000000000000000000081525081526020016040518060400160405280600481526020017ff09fa69e0000000000000000000000000000000000000000000000000000000081525081526020016040518060400160405280600481526020017ff09fa6910000000000000000000000000000000000000000000000000000000081525081526020016040518060400160405280600481526020017ff09fa68b0000000000000000000000000000000000000000000000000000000081525081526020016040518060400160405280600481526020017ff09fa69c0000000000000000000000000000000000000000000000000000000081525081526020016040518060400160405280600481526020017ff09f909900000000000000000000000000000000000000000000000000000000815250815250600f90600662000929929190620012be565b506040518060c001604052806040518060400160405280600481526020017ff09f90900000000000000000000000000000000000000000000000000000000081525081526020016040518060400160405280600481526020017ff09fa6940000000000000000000000000000000000000000000000000000000081525081526020016040518060400160405280600481526020017ff09f90b60000000000000000000000000000000000000000000000000000000081525081526020016040518060400160405280600481526020017ff09fa6890000000000000000000000000000000000000000000000000000000081525081526020016040518060400160405280600481526020017ff09fa6a50000000000000000000000000000000000000000000000000000000081525081526020016040518060400160405280600481526020017ff09fa68c00000000000000000000000000000000000000000000000000000000815250815250601090600662000aa7929190620012be565b506040518060c001604052806040518060400160405280600481526020017ff09fa6830000000000000000000000000000000000000000000000000000000081525081526020016040518060400160405280600481526020017ff09f90b40000000000000000000000000000000000000000000000000000000081525081526020016040518060400160405280600481526020017ff09fa6a60000000000000000000000000000000000000000000000000000000081525081526020016040518060400160405280600481526020017ff09fa6820000000000000000000000000000000000000000000000000000000081525081526020016040518060400160405280600481526020017ff09f90b50000000000000000000000000000000000000000000000000000000081525081526020016040518060400160405280600481526020017ff09f90bb00000000000000000000000000000000000000000000000000000000815250815250601190600662000c25929190620012be565b506040518060c001604052806040518060400160405280600481526020017ff09fa6ab0000000000000000000000000000000000000000000000000000000081525081526020016040518060400160405280600481526020017ff09f90a70000000000000000000000000000000000000000000000000000000081525081526020016040518060400160405280600481526020017ff09fa6990000000000000000000000000000000000000000000000000000000081525081526020016040518060400160405280600481526020017ff09fa6930000000000000000000000000000000000000000000000000000000081525081526020016040518060400160405280600481526020017ff09f90bc0000000000000000000000000000000000000000000000000000000081525081526020016040518060400160405280600481526020017ff09f909d00000000000000000000000000000000000000000000000000000000815250815250601290600662000da3929190620012be565b5034801562000db157600080fd5b506040518060400160405280600b81526020017f456d6f6a6927732041726b0000000000000000000000000000000000000000008152506040518060400160405280600681526020017f5351554152450000000000000000000000000000000000000000000000000000815250816000908051906020019062000e369291906200122d565b50806001908051906020019062000e4f9291906200122d565b5050506040518060c00160405280608d81526020016200608e608d9139600960405162000e7c906200165c565b9081526020016040518091039020908051906020019062000e9f9291906200122d565b506040518060c001604052806090815260200162005f6e60909139600960405162000eca90620016b8565b9081526020016040518091039020908051906020019062000eed9291906200122d565b506040518060c00160405280609081526020016200625760909139600960405162000f1890620016e6565b9081526020016040518091039020908051906020019062000f3b9291906200122d565b506040518060c00160405280609081526020016200611b60909139600960405162000f6690620016cf565b9081526020016040518091039020908051906020019062000f899291906200122d565b506040518060c0016040528060938152602001620062e760939139600960405162000fb490620016a1565b9081526020016040518091039020908051906020019062000fd79291906200122d565b506040518060c001604052806093815260200162005edb6093913960096040516200100290620016fd565b90815260200160405180910390209080519060200190620010259291906200122d565b506040518060c001604052806090815260200162005ffe60909139600960405162001050906200168a565b90815260200160405180910390209080519060200190620010739291906200122d565b506040518060c00160405280609381526020016200637a6093913960096040516200109e9062001673565b90815260200160405180910390209080519060200190620010c19291906200122d565b506040518060c00160405280609381526020016200640d609391396009604051620010ec9062001645565b908152602001604051809103902090805190602001906200110f9291906200122d565b506200115b6040518060400160405280601e81526020017f54686973206973206d79204e465420636f6e74726163742e20576f61682100008152506200116160201b62001c2b1760201c565b6200180b565b620012018160405160240162001178919062001714565b6040516020818303038152906040527f41304fac000000000000000000000000000000000000000000000000000000007bffffffffffffffffffffffffffffffffffffffffffffffffffffffff19166020820180517bffffffffffffffffffffffffffffffffffffffffffffffffffffffff83818316178352505050506200120460201b60201c565b50565b60008151905060006a636f6e736f6c652e6c6f679050602083016000808483855afa5050505050565b8280546200123b9062001795565b90600052602060002090601f0160209004810192826200125f5760008555620012ab565b82601f106200127a57805160ff1916838001178555620012ab565b82800160010185558215620012ab579182015b82811115620012aa5782518255916020019190600101906200128d565b5b509050620012ba919062001325565b5090565b82805482825590600052602060002090810192821562001312579160200282015b8281111562001311578251829080519060200190620013009291906200122d565b5091602001919060010190620012df565b5b50905062001321919062001344565b5090565b5b808211156200134057600081600090555060010162001326565b5090565b5b808211156200136857600081816200135e91906200136c565b5060010162001345565b5090565b5080546200137a9062001795565b6000825580601f106200138e5750620013af565b601f016020900490600052602060002090810190620013ae919062001325565b5b50565b6000620013bf8262001738565b620013cb818562001743565b9350620013dd8185602086016200175f565b620013e881620017fa565b840191505092915050565b60006200140260068362001754565b91507f4e494e45544800000000000000000000000000000000000000000000000000006000830152600682019050919050565b60006200144460058362001754565b91507f46495253540000000000000000000000000000000000000000000000000000006000830152600582019050919050565b60006200148660068362001754565b91507f45494748544800000000000000000000000000000000000000000000000000006000830152600682019050919050565b6000620014c860078362001754565b91507f534556454e5448000000000000000000000000000000000000000000000000006000830152600782019050919050565b60006200150a60058362001754565b91507f46494654480000000000000000000000000000000000000000000000000000006000830152600582019050919050565b60006200154c60068362001754565b91507f5345434f4e4400000000000000000000000000000000000000000000000000006000830152600682019050919050565b60006200158e60068362001754565b91507f464f5552544800000000000000000000000000000000000000000000000000006000830152600682019050919050565b6000620015d060058362001754565b91507f54484952440000000000000000000000000000000000000000000000000000006000830152600582019050919050565b60006200161260058362001754565b91507f53495854480000000000000000000000000000000000000000000000000000006000830152600582019050919050565b60006200165282620013f3565b9150819050919050565b6000620016698262001435565b9150819050919050565b6000620016808262001477565b9150819050919050565b60006200169782620014b9565b9150819050919050565b6000620016ae82620014fb565b9150819050919050565b6000620016c5826200153d565b9150819050919050565b6000620016dc826200157f565b9150819050919050565b6000620016f382620015c1565b9150819050919050565b60006200170a8262001603565b9150819050919050565b60006020820190508181036000830152620017308184620013b2565b905092915050565b600081519050919050565b600082825260208201905092915050565b600081905092915050565b60005b838110156200177f57808201518184015260208101905062001762565b838111156200178f576000848401525b50505050565b60006002820490506001821680620017ae57607f821691505b60208210811415620017c557620017c4620017cb565b5b50919050565b7f4e487b7100000000000000000000000000000000000000000000000000000000600052602260045260246000fd5b6000601f19601f8301169050919050565b6146c0806200181b6000396000f3fe608060405234801561001057600080fd5b506004361061010b5760003560e01c806370a08231116100a2578063b88d4fde11610071578063b88d4fde146102ca578063c87b56dd146102e6578063d52045d714610316578063de9d132f14610346578063e985e9c5146103505761010b565b806370a0823114610242578063732e8d731461027257806395d89b4114610290578063a22cb465146102ae5761010b565b806323b872dd116100de57806323b872dd146101aa57806342842e0e146101c65780636352211e146101e25780636e13be7f146102125761010b565b806301ffc9a71461011057806306fdde0314610140578063081812fc1461015e578063095ea7b31461018e575b600080fd5b61012a6004803603810190610125919061303f565b610380565b6040516101379190613e90565b60405180910390f35b610148610462565b6040516101559190613eab565b60405180910390f35b610178600480360381019061017391906130d2565b6104f4565b6040516101859190613dc9565b60405180910390f35b6101a860048036038101906101a39190613003565b610579565b005b6101c460048036038101906101bf9190612efd565b610691565b005b6101e060048036038101906101db9190612efd565b6106f1565b005b6101fc60048036038101906101f791906130d2565b610711565b6040516102099190613dc9565b60405180910390f35b61022c60048036038101906102279190613091565b6107c3565b6040516102399190613eab565b60405180910390f35b61025c60048036038101906102579190612e98565b610879565b604051610269919061410b565b60405180910390f35b61027a610931565b6040516102879190613e6e565b60405180910390f35b610298610a82565b6040516102a59190613eab565b60405180910390f35b6102c860048036038101906102c39190612fc7565b610b14565b005b6102e460048036038101906102df9190612f4c565b610c95565b005b61030060048036038101906102fb91906130d2565b610cf7565b60405161030d9190613eab565b60405180910390f35b610330600480360381019061032b91906130fb565b610e49565b60405161033d9190613eab565b60405180910390f35b61034e610f38565b005b61036a60048036038101906103659190612ec1565b611b97565b6040516103779190613e90565b60405180910390f35b60007f80ac58cd000000000000000000000000000000000000000000000000000000007bffffffffffffffffffffffffffffffffffffffffffffffffffffffff1916827bffffffffffffffffffffffffffffffffffffffffffffffffffffffff1916148061044b57507f5b5e139f000000000000000000000000000000000000000000000000000000007bffffffffffffffffffffffffffffffffffffffffffffffffffffffff1916827bffffffffffffffffffffffffffffffffffffffffffffffffffffffff1916145b8061045b575061045a82611cc4565b5b9050919050565b60606000805461047190614450565b80601f016020809104026020016040519081016040528092919081815260200182805461049d90614450565b80156104ea5780601f106104bf576101008083540402835291602001916104ea565b820191906000526020600020905b8154815290600101906020018083116104cd57829003601f168201915b5050505050905090565b60006104ff82611d2e565b61053e576040517f08c379a00000000000000000000000000000000000000000000000000000000081526004016105359061406b565b60405180910390fd5b6004600083815260200190815260200160002060009054906101000a900473ffffffffffffffffffffffffffffffffffffffff169050919050565b600061058482610711565b90508073ffffffffffffffffffffffffffffffffffffffff168373ffffffffffffffffffffffffffffffffffffffff1614156105f5576040517f08c379a00000000000000000000000000000000000000000000000000000000081526004016105ec906140cb565b60405180910390fd5b8073ffffffffffffffffffffffffffffffffffffffff16610614611d9a565b73ffffffffffffffffffffffffffffffffffffffff16148061064357506106428161063d611d9a565b611b97565b5b610682576040517f08c379a000000000000000000000000000000000000000000000000000000000815260040161067990613fab565b60405180910390fd5b61068c8383611da2565b505050565b6106a261069c611d9a565b82611e5b565b6106e1576040517f08c379a00000000000000000000000000000000000000000000000000000000081526004016106d8906140eb565b60405180910390fd5b6106ec838383611f39565b505050565b61070c83838360405180602001604052806000815250610c95565b505050565b6000806002600084815260200190815260200160002060009054906101000a900473ffffffffffffffffffffffffffffffffffffffff169050600073ffffffffffffffffffffffffffffffffffffffff168173ffffffffffffffffffffffffffffffffffffffff1614156107ba576040517f08c379a00000000000000000000000000000000000000000000000000000000081526004016107b190613feb565b60405180910390fd5b80915050919050565b60098180516020810182018051848252602083016020850120818352809550505050505060009150905080546107f890614450565b80601f016020809104026020016040519081016040528092919081815260200182805461082490614450565b80156108715780601f1061084657610100808354040283529160200191610871565b820191906000526020600020905b81548152906001019060200180831161085457829003601f168201915b505050505081565b60008073ffffffffffffffffffffffffffffffffffffffff168273ffffffffffffffffffffffffffffffffffffffff1614156108ea576040517f08c379a00000000000000000000000000000000000000000000000000000000081526004016108e190613fcb565b60405180910390fd5b600360008373ffffffffffffffffffffffffffffffffffffffff1673ffffffffffffffffffffffffffffffffffffffff168152602001908152602001600020549050919050565b60606013805480602002602001604051908101604052809291908181526020016000905b82821015610a7957838290600052602060002090600302016040518060600160405290816000820160009054906101000a900473ffffffffffffffffffffffffffffffffffffffff1673ffffffffffffffffffffffffffffffffffffffff1673ffffffffffffffffffffffffffffffffffffffff168152602001600182015481526020016002820180546109e890614450565b80601f0160208091040260200160405190810160405280929190818152602001828054610a1490614450565b8015610a615780601f10610a3657610100808354040283529160200191610a61565b820191906000526020600020905b815481529060010190602001808311610a4457829003601f168201915b50505050508152505081526020019060010190610955565b50505050905090565b606060018054610a9190614450565b80601f0160208091040260200160405190810160405280929190818152602001828054610abd90614450565b8015610b0a5780601f10610adf57610100808354040283529160200191610b0a565b820191906000526020600020905b815481529060010190602001808311610aed57829003601f168201915b5050505050905090565b610b1c611d9a565b73ffffffffffffffffffffffffffffffffffffffff168273ffffffffffffffffffffffffffffffffffffffff161415610b8a576040517f08c379a0000000000000000000000000000000000000000000000000000000008152600401610b8190613f6b565b60405180910390fd5b8060056000610b97611d9a565b73ffffffffffffffffffffffffffffffffffffffff1673ffffffffffffffffffffffffffffffffffffffff16815260200190815260200160002060008473ffffffffffffffffffffffffffffffffffffffff1673ffffffffffffffffffffffffffffffffffffffff16815260200190815260200160002060006101000a81548160ff0219169083151502179055508173ffffffffffffffffffffffffffffffffffffffff16610c44611d9a565b73ffffffffffffffffffffffffffffffffffffffff167f17307eab39ab6107e8899845ad3d59bd9653f200f220920489ca2b5937696c3183604051610c899190613e90565b60405180910390a35050565b610ca6610ca0611d9a565b83611e5b565b610ce5576040517f08c379a0000000000000000000000000000000000000000000000000000000008152600401610cdc906140eb565b60405180910390fd5b610cf184848484612195565b50505050565b6060610d0282611d2e565b610d41576040517f08c379a0000000000000000000000000000000000000000000000000000000008152600401610d389061404b565b60405180910390fd5b6000600660008481526020019081526020016000208054610d6190614450565b80601f0160208091040260200160405190810160405280929190818152602001828054610d8d90614450565b8015610dda5780601f10610daf57610100808354040283529160200191610dda565b820191906000526020600020905b815481529060010190602001808311610dbd57829003601f168201915b505050505090506000610deb6121f1565b9050600081511415610e01578192505050610e44565b600082511115610e36578082604051602001610e1e929190613c56565b60405160208183030381529060405292505050610e44565b610e3f84612208565b925050505b919050565b60606000610e588585856122af565b90506000600985604051610e6c9190613c3f565b90815260200160405180910390208054610e8590614450565b80601f0160208091040260200160405190810160405280929190818152602001828054610eb190614450565b8015610efe5780601f10610ed357610100808354040283529160200191610efe565b820191906000526020600020905b815481529060010190602001808311610ee157829003601f168201915b5050505050905060008183604051602001610f1a929190613c7a565b60405160208183030381529060405290508093505050509392505050565b6000610f446007612341565b90506000611059826040518060400160405280600581526020017f4649525354000000000000000000000000000000000000000000000000000000815250600a805480602002602001604051908101604052809291908181526020016000905b82821015611050578382906000526020600020018054610fc390614450565b80601f0160208091040260200160405190810160405280929190818152602001828054610fef90614450565b801561103c5780601f106110115761010080835404028352916020019161103c565b820191906000526020600020905b81548152906001019060200180831161101f57829003601f168201915b505050505081526020019060010190610fa4565b50505050610e49565b9050600061116e836040518060400160405280600681526020017f5345434f4e440000000000000000000000000000000000000000000000000000815250600b805480602002602001604051908101604052809291908181526020016000905b828210156111655783829060005260206000200180546110d890614450565b80601f016020809104026020016040519081016040528092919081815260200182805461110490614450565b80156111515780601f1061112657610100808354040283529160200191611151565b820191906000526020600020905b81548152906001019060200180831161113457829003601f168201915b5050505050815260200190600101906110b9565b50505050610e49565b90506000611283846040518060400160405280600581526020017f5448495244000000000000000000000000000000000000000000000000000000815250600c805480602002602001604051908101604052809291908181526020016000905b8282101561127a5783829060005260206000200180546111ed90614450565b80601f016020809104026020016040519081016040528092919081815260200182805461121990614450565b80156112665780601f1061123b57610100808354040283529160200191611266565b820191906000526020600020905b81548152906001019060200180831161124957829003601f168201915b5050505050815260200190600101906111ce565b50505050610e49565b90506000611398856040518060400160405280600681526020017f464f555254480000000000000000000000000000000000000000000000000000815250600d805480602002602001604051908101604052809291908181526020016000905b8282101561138f57838290600052602060002001805461130290614450565b80601f016020809104026020016040519081016040528092919081815260200182805461132e90614450565b801561137b5780601f106113505761010080835404028352916020019161137b565b820191906000526020600020905b81548152906001019060200180831161135e57829003601f168201915b5050505050815260200190600101906112e3565b50505050610e49565b905060006114ad866040518060400160405280600581526020017f4649465448000000000000000000000000000000000000000000000000000000815250600e805480602002602001604051908101604052809291908181526020016000905b828210156114a457838290600052602060002001805461141790614450565b80601f016020809104026020016040519081016040528092919081815260200182805461144390614450565b80156114905780601f1061146557610100808354040283529160200191611490565b820191906000526020600020905b81548152906001019060200180831161147357829003601f168201915b5050505050815260200190600101906113f8565b50505050610e49565b905060006115c2876040518060400160405280600581526020017f5349585448000000000000000000000000000000000000000000000000000000815250600f805480602002602001604051908101604052809291908181526020016000905b828210156115b957838290600052602060002001805461152c90614450565b80601f016020809104026020016040519081016040528092919081815260200182805461155890614450565b80156115a55780601f1061157a576101008083540402835291602001916115a5565b820191906000526020600020905b81548152906001019060200180831161158857829003601f168201915b50505050508152602001906001019061150d565b50505050610e49565b905060006116d7886040518060400160405280600781526020017f534556454e5448000000000000000000000000000000000000000000000000008152506010805480602002602001604051908101604052809291908181526020016000905b828210156116ce57838290600052602060002001805461164190614450565b80601f016020809104026020016040519081016040528092919081815260200182805461166d90614450565b80156116ba5780601f1061168f576101008083540402835291602001916116ba565b820191906000526020600020905b81548152906001019060200180831161169d57829003601f168201915b505050505081526020019060010190611622565b50505050610e49565b905060006117ec896040518060400160405280600681526020017f45494748544800000000000000000000000000000000000000000000000000008152506011805480602002602001604051908101604052809291908181526020016000905b828210156117e357838290600052602060002001805461175690614450565b80601f016020809104026020016040519081016040528092919081815260200182805461178290614450565b80156117cf5780601f106117a4576101008083540402835291602001916117cf565b820191906000526020600020905b8154815290600101906020018083116117b257829003601f168201915b505050505081526020019060010190611737565b50505050610e49565b905060006119018a6040518060400160405280600681526020017f4e494e45544800000000000000000000000000000000000000000000000000008152506012805480602002602001604051908101604052809291908181526020016000905b828210156118f857838290600052602060002001805461186b90614450565b80601f016020809104026020016040519081016040528092919081815260200182805461189790614450565b80156118e45780601f106118b9576101008083540402835291602001916118e4565b820191906000526020600020905b8154815290600101906020018083116118c757829003601f168201915b50505050508152602001906001019061184c565b50505050610e49565b9050600060088a8a8a8a8a8a8a8a8a6040516020016119299a99989796959493929190613ca9565b604051602081830303815290604052905060006119766119488d61234f565b611951846124fc565b604051602001611962929190613d84565b6040516020818303038152906040526124fc565b905060008160405160200161198b9190613d62565b60405160208183030381529060405290506119da6040518060400160405280601581526020017f0a2d2d2d2d2d2d2d2d2d2d2d2d2d2d2d2d2d2d2d2d0000000000000000000000815250611c2b565b611a02816040516020016119ee9190613d40565b604051602081830303815290604052611c2b565b611a406040518060400160405280601581526020017f2d2d2d2d2d2d2d2d2d2d2d2d2d2d2d2d2d2d2d2d0a0000000000000000000000815250611c2b565b611a4a338e6126ba565b611a548d826126d8565b601360405180606001604052803373ffffffffffffffffffffffffffffffffffffffff1681526020018f815260200183815250908060018154018082558091505060019003906000526020600020906003020160009091909190915060008201518160000160006101000a81548173ffffffffffffffffffffffffffffffffffffffff021916908373ffffffffffffffffffffffffffffffffffffffff160217905550602082015181600101556040820151816002019080519060200190611b1d929190612c35565b505050611b43604051806060016040528060258152602001614626602591398e3361274c565b611b4d60076127eb565b7f4d3a24d1178b5e84c3f01818172d8951082caa1dad646fead020c45a049544ef338e83604051611b8093929190613e30565b60405180910390a150505050505050505050505050565b6000600560008473ffffffffffffffffffffffffffffffffffffffff1673ffffffffffffffffffffffffffffffffffffffff16815260200190815260200160002060008373ffffffffffffffffffffffffffffffffffffffff1673ffffffffffffffffffffffffffffffffffffffff16815260200190815260200160002060009054906101000a900460ff16905092915050565b611cc181604051602401611c3f9190613eab565b6040516020818303038152906040527f41304fac000000000000000000000000000000000000000000000000000000007bffffffffffffffffffffffffffffffffffffffffffffffffffffffff19166020820180517bffffffffffffffffffffffffffffffffffffffffffffffffffffffff8381831617835250505050612801565b50565b60007f01ffc9a7000000000000000000000000000000000000000000000000000000007bffffffffffffffffffffffffffffffffffffffffffffffffffffffff1916827bffffffffffffffffffffffffffffffffffffffffffffffffffffffff1916149050919050565b60008073ffffffffffffffffffffffffffffffffffffffff166002600084815260200190815260200160002060009054906101000a900473ffffffffffffffffffffffffffffffffffffffff1673ffffffffffffffffffffffffffffffffffffffff1614159050919050565b600033905090565b816004600083815260200190815260200160002060006101000a81548173ffffffffffffffffffffffffffffffffffffffff021916908373ffffffffffffffffffffffffffffffffffffffff160217905550808273ffffffffffffffffffffffffffffffffffffffff16611e1583610711565b73ffffffffffffffffffffffffffffffffffffffff167f8c5be1e5ebec7d5bd14f71427d1e84f3dd0314c0f7b2291e5b200ac8c7c3b92560405160405180910390a45050565b6000611e6682611d2e565b611ea5576040517f08c379a0000000000000000000000000000000000000000000000000000000008152600401611e9c90613f8b565b60405180910390fd5b6000611eb083610711565b90508073ffffffffffffffffffffffffffffffffffffffff168473ffffffffffffffffffffffffffffffffffffffff161480611f1f57508373ffffffffffffffffffffffffffffffffffffffff16611f07846104f4565b73ffffffffffffffffffffffffffffffffffffffff16145b80611f305750611f2f8185611b97565b5b91505092915050565b8273ffffffffffffffffffffffffffffffffffffffff16611f5982610711565b73ffffffffffffffffffffffffffffffffffffffff1614611faf576040517f08c379a0000000000000000000000000000000000000000000000000000000008152600401611fa69061408b565b60405180910390fd5b600073ffffffffffffffffffffffffffffffffffffffff168273ffffffffffffffffffffffffffffffffffffffff16141561201f576040517f08c379a000000000000000000000000000000000000000000000000000000000815260040161201690613f4b565b60405180910390fd5b61202a83838361282a565b612035600082611da2565b6001600360008573ffffffffffffffffffffffffffffffffffffffff1673ffffffffffffffffffffffffffffffffffffffff16815260200190815260200160002060008282546120859190614366565b925050819055506001600360008473ffffffffffffffffffffffffffffffffffffffff1673ffffffffffffffffffffffffffffffffffffffff16815260200190815260200160002060008282546120dc9190614285565b92505081905550816002600083815260200190815260200160002060006101000a81548173ffffffffffffffffffffffffffffffffffffffff021916908373ffffffffffffffffffffffffffffffffffffffff160217905550808273ffffffffffffffffffffffffffffffffffffffff168473ffffffffffffffffffffffffffffffffffffffff167fddf252ad1be2c89b69c2b068fc378daa952ba7f163c4a11628f55a4df523b3ef60405160405180910390a4505050565b6121a0848484611f39565b6121ac8484848461282f565b6121eb576040517f08c379a00000000000000000000000000000000000000000000000000000000081526004016121e290613f0b565b60405180910390fd5b50505050565b606060405180602001604052806000815250905090565b606061221382611d2e565b612252576040517f08c379a0000000000000000000000000000000000000000000000000000000008152600401612249906140ab565b60405180910390fd5b600061225c6121f1565b9050600081511161227c57604051806020016040528060008152506122a7565b806122868461234f565b604051602001612297929190613c56565b6040516020818303038152906040525b915050919050565b606060006122e5846122c08761234f565b6040516020016122d1929190613c56565b6040516020818303038152906040526129c6565b90508251816122f491906144cb565b905082818151811061232f577f4e487b7100000000000000000000000000000000000000000000000000000000600052603260045260246000fd5b60200260200101519150509392505050565b600081600001549050919050565b60606000821415612397576040518060400160405280600181526020017f300000000000000000000000000000000000000000000000000000000000000081525090506124f7565b600082905060005b600082146123c95780806123b290614482565b915050600a826123c291906142db565b915061239f565b60008167ffffffffffffffff81111561240b577f4e487b7100000000000000000000000000000000000000000000000000000000600052604160045260246000fd5b6040519080825280601f01601f19166020018201604052801561243d5781602001600182028036833780820191505090505b5090505b600085146124f0576001826124569190614366565b9150600a8561246591906144cb565b60306124719190614285565b60f81b8183815181106124ad577f4e487b7100000000000000000000000000000000000000000000000000000000600052603260045260246000fd5b60200101907effffffffffffffffffffffffffffffffffffffffffffffffffffffffffffff1916908160001a905350600a856124e991906142db565b9450612441565b8093505050505b919050565b6060600082519050600081141561252557604051806020016040528060008152509150506126b5565b600060036002836125369190614285565b61254091906142db565b600461254c919061430c565b9050600060208261255d9190614285565b67ffffffffffffffff81111561259c577f4e487b7100000000000000000000000000000000000000000000000000000000600052604160045260246000fd5b6040519080825280601f01601f1916602001820160405280156125ce5781602001600182028036833780820191505090505b509050600060405180606001604052806040815260200161464b604091399050600181016020830160005b868110156126725760038101905062ffffff818a015116603f8160121c168401518060081b905060ff603f83600c1c1686015116810190508060081b905060ff603f8360061c1686015116810190508060081b905060ff603f831686015116810190508060e01b905080845260048401935050506125f9565b50600386066001811461268c576002811461269c576126a7565b613d3d60f01b60028303526126a7565b603d60f81b60018303525b508484525050819450505050505b919050565b6126d48282604051806020016040528060008152506129f9565b5050565b6126e182611d2e565b612720576040517f08c379a00000000000000000000000000000000000000000000000000000000081526004016127179061400b565b60405180910390fd5b80600660008481526020019081526020016000209080519060200190612747929190612c35565b505050565b6127e683838360405160240161276493929190613ecd565b6040516020818303038152906040527fe3849f79000000000000000000000000000000000000000000000000000000007bffffffffffffffffffffffffffffffffffffffffffffffffffffffff19166020820180517bffffffffffffffffffffffffffffffffffffffffffffffffffffffff8381831617835250505050612801565b505050565b6001816000016000828254019250508190555050565b60008151905060006a636f6e736f6c652e6c6f679050602083016000808483855afa5050505050565b505050565b60006128508473ffffffffffffffffffffffffffffffffffffffff16612a54565b156129b9578373ffffffffffffffffffffffffffffffffffffffff1663150b7a02612879611d9a565b8786866040518563ffffffff1660e01b815260040161289b9493929190613de4565b602060405180830381600087803b1580156128b557600080fd5b505af19250505080156128e657506040513d601f19601f820116820180604052508101906128e39190613068565b60015b612969573d8060008114612916576040519150601f19603f3d011682016040523d82523d6000602084013e61291b565b606091505b50600081511415612961576040517f08c379a000000000000000000000000000000000000000000000000000000000815260040161295890613f0b565b60405180910390fd5b805181602001fd5b63150b7a0260e01b7bffffffffffffffffffffffffffffffffffffffffffffffffffffffff1916817bffffffffffffffffffffffffffffffffffffffffffffffffffffffff1916149150506129be565b600190505b949350505050565b6000816040516020016129d99190613c3f565b6040516020818303038152906040528051906020012060001c9050919050565b612a038383612a67565b612a10600084848461282f565b612a4f576040517f08c379a0000000000000000000000000000000000000000000000000000000008152600401612a4690613f0b565b60405180910390fd5b505050565b600080823b905060008111915050919050565b600073ffffffffffffffffffffffffffffffffffffffff168273ffffffffffffffffffffffffffffffffffffffff161415612ad7576040517f08c379a0000000000000000000000000000000000000000000000000000000008152600401612ace9061402b565b60405180910390fd5b612ae081611d2e565b15612b20576040517f08c379a0000000000000000000000000000000000000000000000000000000008152600401612b1790613f2b565b60405180910390fd5b612b2c6000838361282a565b6001600360008473ffffffffffffffffffffffffffffffffffffffff1673ffffffffffffffffffffffffffffffffffffffff1681526020019081526020016000206000828254612b7c9190614285565b92505081905550816002600083815260200190815260200160002060006101000a81548173ffffffffffffffffffffffffffffffffffffffff021916908373ffffffffffffffffffffffffffffffffffffffff160217905550808273ffffffffffffffffffffffffffffffffffffffff16600073ffffffffffffffffffffffffffffffffffffffff167fddf252ad1be2c89b69c2b068fc378daa952ba7f163c4a11628f55a4df523b3ef60405160405180910390a45050565b828054612c4190614450565b90600052602060002090601f016020900481019282612c635760008555612caa565b82601f10612c7c57805160ff1916838001178555612caa565b82800160010185558215612caa579182015b82811115612ca9578251825591602001919060010190612c8e565b5b509050612cb79190612cbb565b5090565b5b80821115612cd4576000816000905550600101612cbc565b5090565b6000612ceb612ce684614157565b614126565b9050808382526020820190508260005b85811015612d2b5781358501612d118882612e59565b845260208401935060208301925050600181019050612cfb565b5050509392505050565b6000612d48612d4384614183565b614126565b905082815260208101848484011115612d6057600080fd5b612d6b84828561440e565b509392505050565b6000612d86612d81846141b3565b614126565b905082815260208101848484011115612d9e57600080fd5b612da984828561440e565b509392505050565b600081359050612dc0816145c9565b92915050565b600082601f830112612dd757600080fd5b8135612de7848260208601612cd8565b91505092915050565b600081359050612dff816145e0565b92915050565b600081359050612e14816145f7565b92915050565b600081519050612e29816145f7565b92915050565b600082601f830112612e4057600080fd5b8135612e50848260208601612d35565b91505092915050565b600082601f830112612e6a57600080fd5b8135612e7a848260208601612d73565b91505092915050565b600081359050612e928161460e565b92915050565b600060208284031215612eaa57600080fd5b6000612eb884828501612db1565b91505092915050565b60008060408385031215612ed457600080fd5b6000612ee285828601612db1565b9250506020612ef385828601612db1565b9150509250929050565b600080600060608486031215612f1257600080fd5b6000612f2086828701612db1565b9350506020612f3186828701612db1565b9250506040612f4286828701612e83565b9150509250925092565b60008060008060808587031215612f6257600080fd5b6000612f7087828801612db1565b9450506020612f8187828801612db1565b9350506040612f9287828801612e83565b925050606085013567ffffffffffffffff811115612faf57600080fd5b612fbb87828801612e2f565b91505092959194509250565b60008060408385031215612fda57600080fd5b6000612fe885828601612db1565b9250506020612ff985828601612df0565b9150509250929050565b6000806040838503121561301657600080fd5b600061302485828601612db1565b925050602061303585828601612e83565b9150509250929050565b60006020828403121561305157600080fd5b600061305f84828501612e05565b91505092915050565b60006020828403121561307a57600080fd5b600061308884828501612e1a565b91505092915050565b6000602082840312156130a357600080fd5b600082013567ffffffffffffffff8111156130bd57600080fd5b6130c984828501612e59565b91505092915050565b6000602082840312156130e457600080fd5b60006130f284828501612e83565b91505092915050565b60008060006060848603121561311057600080fd5b600061311e86828701612e83565b935050602084013567ffffffffffffffff81111561313b57600080fd5b61314786828701612e59565b925050604084013567ffffffffffffffff81111561316457600080fd5b61317086828701612dc6565b9150509250925092565b60006131868383613bd1565b905092915050565b6131978161439a565b82525050565b6131a68161439a565b82525050565b60006131b782614208565b6131c18185614236565b9350836020820285016131d3856141e3565b8060005b8581101561320f57848403895281516131f0858261317a565b94506131fb83614229565b925060208a019950506001810190506131d7565b50829750879550505050505092915050565b61322a816143ac565b82525050565b600061323b82614213565b6132458185614247565b935061325581856020860161441d565b61325e816145b8565b840191505092915050565b60006132748261421e565b61327e8185614258565b935061328e81856020860161441d565b613297816145b8565b840191505092915050565b60006132ad8261421e565b6132b78185614269565b93506132c781856020860161441d565b6132d0816145b8565b840191505092915050565b60006132e68261421e565b6132f0818561427a565b935061330081856020860161441d565b80840191505092915050565b6000815461331981614450565b613323818661427a565b9450600182166000811461333e576001811461334f57613382565b60ff19831686528186019350613382565b613358856141f3565b60005b8381101561337a5781548189015260018201915060208101905061335b565b838801955050505b50505092915050565b600061339860258361427a565b91507f68747470733a2f2f6e6674707265766965772e30786465762e636f6465732f3f60008301527f636f64653d0000000000000000000000000000000000000000000000000000006020830152602582019050919050565b60006133fe603283614269565b91507f4552433732313a207472616e7366657220746f206e6f6e20455243373231526560008301527f63656976657220696d706c656d656e74657200000000000000000000000000006020830152604082019050919050565b6000613464601c83614269565b91507f4552433732313a20746f6b656e20616c7265616479206d696e746564000000006000830152602082019050919050565b60006134a460768361427a565b91507f222c20226465736372697074696f6e223a202241206375746520636f6c6c656360008301527f74696f6e206f6620616e696d616c7320746f207361766520616e64206272696e60208301527f6720746f2074686520776f726c642e222c2022696d616765223a20226461746160408301527f3a696d6167652f7376672b786d6c3b6261736536342c000000000000000000006060830152607682019050919050565b6000613556602483614269565b91507f4552433732313a207472616e7366657220746f20746865207a65726f2061646460008301527f72657373000000000000000000000000000000000000000000000000000000006020830152604082019050919050565b60006135bc601983614269565b91507f4552433732313a20617070726f766520746f2063616c6c6572000000000000006000830152602082019050919050565b60006135fc602c83614269565b91507f4552433732313a206f70657261746f7220717565727920666f72206e6f6e657860008301527f697374656e7420746f6b656e00000000000000000000000000000000000000006020830152604082019050919050565b6000613662603883614269565b91507f4552433732313a20617070726f76652063616c6c6572206973206e6f74206f7760008301527f6e6572206e6f7220617070726f76656420666f7220616c6c00000000000000006020830152604082019050919050565b60006136c8602a83614269565b91507f4552433732313a2062616c616e636520717565727920666f7220746865207a6560008301527f726f2061646472657373000000000000000000000000000000000000000000006020830152604082019050919050565b600061372e602983614269565b91507f4552433732313a206f776e657220717565727920666f72206e6f6e657869737460008301527f656e7420746f6b656e00000000000000000000000000000000000000000000006020830152604082019050919050565b6000613794602e83614269565b91507f45524337323155524953746f726167653a2055524920736574206f66206e6f6e60008301527f6578697374656e7420746f6b656e0000000000000000000000000000000000006020830152604082019050919050565b60006137fa60028361427a565b91507f227d0000000000000000000000000000000000000000000000000000000000006000830152600282019050919050565b600061383a60078361427a565b91507f3c2f746578743e000000000000000000000000000000000000000000000000006000830152600782019050919050565b600061387a602083614269565b91507f4552433732313a206d696e7420746f20746865207a65726f20616464726573736000830152602082019050919050565b60006138ba603183614269565b91507f45524337323155524953746f726167653a2055524920717565727920666f722060008301527f6e6f6e6578697374656e7420746f6b656e0000000000000000000000000000006020830152604082019050919050565b6000613920602c83614269565b91507f4552433732313a20617070726f76656420717565727920666f72206e6f6e657860008301527f697374656e7420746f6b656e00000000000000000000000000000000000000006020830152604082019050919050565b6000613986602983614269565b91507f4552433732313a207472616e73666572206f6620746f6b656e2074686174206960008301527f73206e6f74206f776e00000000000000000000000000000000000000000000006020830152604082019050919050565b60006139ec602f83614269565b91507f4552433732314d657461646174613a2055524920717565727920666f72206e6f60008301527f6e6578697374656e7420746f6b656e00000000000000000000000000000000006020830152604082019050919050565b6000613a52602183614269565b91507f4552433732313a20617070726f76616c20746f2063757272656e74206f776e6560008301527f72000000000000000000000000000000000000000000000000000000000000006020830152604082019050919050565b6000613ab8601d8361427a565b91507f646174613a6170706c69636174696f6e2f6a736f6e3b6261736536342c0000006000830152601d82019050919050565b6000613af8603183614269565b91507f4552433732313a207472616e736665722063616c6c6572206973206e6f74206f60008301527f776e6572206e6f7220617070726f7665640000000000000000000000000000006020830152604082019050919050565b6000613b5e60158361427a565b91507f7b226e616d65223a2022456d6f6a692041726b202300000000000000000000006000830152601582019050919050565b6000613b9e60068361427a565b91507f3c2f7376673e00000000000000000000000000000000000000000000000000006000830152600682019050919050565b6000606083016000830151613be9600086018261318e565b506020830151613bfc6020860182613c21565b5060408301518482036040860152613c148282613269565b9150508091505092915050565b613c2a81614404565b82525050565b613c3981614404565b82525050565b6000613c4b82846132db565b915081905092915050565b6000613c6282856132db565b9150613c6e82846132db565b91508190509392505050565b6000613c8682856132db565b9150613c9282846132db565b9150613c9d8261382d565b91508190509392505050565b6000613cb5828d61330c565b9150613cc1828c6132db565b9150613ccd828b6132db565b9150613cd9828a6132db565b9150613ce582896132db565b9150613cf182886132db565b9150613cfd82876132db565b9150613d0982866132db565b9150613d1582856132db565b9150613d2182846132db565b9150613d2c82613b91565b91508190509b9a5050505050505050505050565b6000613d4b8261338b565b9150613d5782846132db565b915081905092915050565b6000613d6d82613aab565b9150613d7982846132db565b915081905092915050565b6000613d8f82613b51565b9150613d9b82856132db565b9150613da682613497565b9150613db282846132db565b9150613dbd826137ed565b91508190509392505050565b6000602082019050613dde600083018461319d565b92915050565b6000608082019050613df9600083018761319d565b613e06602083018661319d565b613e136040830185613c30565b8181036060830152613e258184613230565b905095945050505050565b6000606082019050613e45600083018661319d565b613e526020830185613c30565b8181036040830152613e6481846132a2565b9050949350505050565b60006020820190508181036000830152613e8881846131ac565b905092915050565b6000602082019050613ea56000830184613221565b92915050565b60006020820190508181036000830152613ec581846132a2565b905092915050565b60006060820190508181036000830152613ee781866132a2565b9050613ef66020830185613c30565b613f03604083018461319d565b949350505050565b60006020820190508181036000830152613f24816133f1565b9050919050565b60006020820190508181036000830152613f4481613457565b9050919050565b60006020820190508181036000830152613f6481613549565b9050919050565b60006020820190508181036000830152613f84816135af565b9050919050565b60006020820190508181036000830152613fa4816135ef565b9050919050565b60006020820190508181036000830152613fc481613655565b9050919050565b60006020820190508181036000830152613fe4816136bb565b9050919050565b6000602082019050818103600083015261400481613721565b9050919050565b6000602082019050818103600083015261402481613787565b9050919050565b600060208201905081810360008301526140448161386d565b9050919050565b60006020820190508181036000830152614064816138ad565b9050919050565b6000602082019050818103600083015261408481613913565b9050919050565b600060208201905081810360008301526140a481613979565b9050919050565b600060208201905081810360008301526140c4816139df565b9050919050565b600060208201905081810360008301526140e481613a45565b9050919050565b6000602082019050818103600083015261410481613aeb565b9050919050565b60006020820190506141206000830184613c30565b92915050565b6000604051905081810181811067ffffffffffffffff8211171561414d5761414c614589565b5b8060405250919050565b600067ffffffffffffffff82111561417257614171614589565b5b602082029050602081019050919050565b600067ffffffffffffffff82111561419e5761419d614589565b5b601f19601f8301169050602081019050919050565b600067ffffffffffffffff8211156141ce576141cd614589565b5b601f19601f8301169050602081019050919050565b6000819050602082019050919050565b60008190508160005260206000209050919050565b600081519050919050565b600081519050919050565b600081519050919050565b6000602082019050919050565b600082825260208201905092915050565b600082825260208201905092915050565b600082825260208201905092915050565b600082825260208201905092915050565b600081905092915050565b600061429082614404565b915061429b83614404565b9250827fffffffffffffffffffffffffffffffffffffffffffffffffffffffffffffffff038211156142d0576142cf6144fc565b5b828201905092915050565b60006142e682614404565b91506142f183614404565b9250826143015761430061452b565b5b828204905092915050565b600061431782614404565b915061432283614404565b9250817fffffffffffffffffffffffffffffffffffffffffffffffffffffffffffffffff048311821515161561435b5761435a6144fc565b5b828202905092915050565b600061437182614404565b915061437c83614404565b92508282101561438f5761438e6144fc565b5b828203905092915050565b60006143a5826143e4565b9050919050565b60008115159050919050565b60007fffffffff0000000000000000000000000000000000000000000000000000000082169050919050565b600073ffffffffffffffffffffffffffffffffffffffff82169050919050565b6000819050919050565b82818337600083830152505050565b60005b8381101561443b578082015181840152602081019050614420565b8381111561444a576000848401525b50505050565b6000600282049050600182168061446857607f821691505b6020821081141561447c5761447b61455a565b5b50919050565b600061448d82614404565b91507fffffffffffffffffffffffffffffffffffffffffffffffffffffffffffffffff8214156144c0576144bf6144fc565b5b600182019050919050565b60006144d682614404565b91506144e183614404565b9250826144f1576144f061452b565b5b828206905092915050565b7f4e487b7100000000000000000000000000000000000000000000000000000000600052601160045260246000fd5b7f4e487b7100000000000000000000000000000000000000000000000000000000600052601260045260246000fd5b7f4e487b7100000000000000000000000000000000000000000000000000000000600052602260045260246000fd5b7f4e487b7100000000000000000000000000000000000000000000000000000000600052604160045260246000fd5b6000601f19601f8301169050919050565b6145d28161439a565b81146145dd57600080fd5b50565b6145e9816143ac565b81146145f457600080fd5b50565b614600816143b8565b811461460b57600080fd5b50565b61461781614404565b811461462257600080fd5b5056fe416e204e465420772f20494420257320686173206265656e206d696e74656420746f2025734142434445464748494a4b4c4d4e4f505152535455565758595a6162636465666768696a6b6c6d6e6f707172737475767778797a303132333435363738392b2fa26469706673582212202e6759c6c1fac19ea4a10a662d10e33011f1af8971f0d3a29ecc7b91d61ff96064736f6c634300080000333c726563742077696474683d2731303027206865696768743d273130302720783d273230302720793d27313030272066696c6c3d272346354132413227202f3e3c7465787420783d273235302720793d273135302720636c6173733d27626173652720646f6d696e616e742d626173656c696e653d276d6964646c652720746578742d616e63686f723d276d6964646c65273e3c726563742077696474683d2731303027206865696768743d273130302720783d273130302720793d2730272066696c6c3d272338394334433227202f3e3c7465787420783d273135302720793d2735302720636c6173733d27626173652720646f6d696e616e742d626173656c696e653d276d6964646c652720746578742d616e63686f723d276d6964646c65273e3c726563742077696474683d2731303027206865696768743d273130302720783d27302720793d27323030272066696c6c3d272346334637433127202f3e3c7465787420783d2735302720793d273235302720636c6173733d27626173652720646f6d696e616e742d626173656c696e653d276d6964646c652720746578742d616e63686f723d276d6964646c65273e3c726563742077696474683d2731303027206865696768743d273130302720783d27302720793d2730272066696c6c3d272344304542433527202f3e3c7465787420783d2735302720793d2735302720636c6173733d27626173652720646f6d696e616e742d626173656c696e653d276d6964646c652720746578742d616e63686f723d276d6964646c65273e3c726563742077696474683d2731303027206865696768743d273130302720783d27302720793d27313030272066696c6c3d272346394434413427202f3e3c7465787420783d2735302720793d273135302720636c6173733d27626173652720646f6d696e616e742d626173656c696e653d276d6964646c652720746578742d616e63686f723d276d6964646c65273e3c73766720786d6c6e733d27687474703a2f2f7777772e77332e6f72672f323030302f73766727207072657365727665417370656374526174696f3d27784d696e594d696e206d656574272076696577426f783d273020302033303020333030273e3c7374796c653e2e62617365207b2066696c6c3a2077686974653b20666f6e742d66616d696c793a2073657269663b20666f6e742d73697a653a20353070783b207d3c2f7374796c653e3c726563742077696474683d2731303027206865696768743d273130302720783d273230302720793d2730272066696c6c3d272343464346433427202f3e3c7465787420783d273235302720793d2735302720636c6173733d27626173652720646f6d696e616e742d626173656c696e653d276d6964646c652720746578742d616e63686f723d276d6964646c65273e3c726563742077696474683d2731303027206865696768743d273130302720783d273130302720793d27313030272066696c6c3d272346464238463327202f3e3c7465787420783d273135302720793d273135302720636c6173733d27626173652720646f6d696e616e742d626173656c696e653d276d6964646c652720746578742d616e63686f723d276d6964646c65273e3c726563742077696474683d2731303027206865696768743d273130302720783d273130302720793d27323030272066696c6c3d272344364244384227202f3e3c7465787420783d273135302720793d273235302720636c6173733d27626173652720646f6d696e616e742d626173656c696e653d276d6964646c652720746578742d616e63686f723d276d6964646c65273e3c726563742077696474683d2731303027206865696768743d273130302720783d273230302720793d27323030272066696c6c3d272333363336333627202f3e3c7465787420783d273235302720793d273235302720636c6173733d27626173652720646f6d696e616e742d626173656c696e653d276d6964646c652720746578742d616e63686f723d276d6964646c65273e",
  "linkReferences": {},
  "deployedLinkReferences": {}
}